:020000040800F2
:10000000480B0020A1020008A9020008AB0200086A
:10001000AD020008AF020008B102000800000000B5
:10002000000000000000000000000000B302000813
:10003000B502000800000000B702000861020008D5
:10004000BB020008BB020008BB020008BB0200089C
:10005000BB020008BB020008BB020008BB0200088C
:10006000BB020008BB020008BB020008BB0200087C
:10007000BB020008BB020008BB020008BB0200086C
:10008000BB020008BB020008BB020008BB0200085C
:10009000BB020008BB020008BB020008BB0200084C
:1000A000BB020008BB020008BB020008BB0200083C
:1000B000BB020008BB020008BB020008BB0200082C
:1000C000BB020008BB020008BB020008BB0200081C
:1000D000BB020008BB020008BB020008BB0200080C
:1000E000BB020008BB020008BB020008BB020008FC
:1000F000BB020008BB020008BB020008BB020008EC
:10010000BB020008BB020008BB020008BB020008DB
:10011000BB020008BB020008BB020008BB020008CB
:10012000BB020008BB020008BB020008BB020008BB
:10013000BB0200080000000000000000BB02000835
:10014000BB020008BB020008BB020008BB0200089B
:10015000BB020008BB020008BB020008BB0200088B
:10016000BB020008BB020008BB020008BB0200087B
:10017000BB020008BB020008BB0200080000000030
:1001800000000000BB0200080000000000000000AA
:10019000BB0200080000000000000000BB020008D5
:1001A000000000000000000000000000BB0200088A
:1001B000BB020008BB020008BB020008BB0200082B
:1001C000BB02000800F002F800F03AF80AA090E83C
:1001D000000C82448344AAF10107DA4501D100F002
:1001E0002FF8AFF2090EBAE80F0013F0010F18BF95
:1001F000FB1A43F001031847740300009403000046
:10020000103A24BF78C878C1FAD8520724BF30C842
:1002100030C144BF04680C60704700000023002414
:1002200000250026103A28BF78C1FBD8520728BF06
:1002300030C148BF0B6070471FB51FBD10B510BD62
:1002400000F051F81146FFF7F7FF00F0EBF800F06F
:100250006FF803B4FFF7F2FF03BC00F077F800007B
:1002600072B62DE9F00F0D480168C1F800D0496859
:100270000160D1F800D0BDE8F00F62B670470748C2
:100280000268D2F800D0BDE8F00F0FBC5DF804CBD7
:1002900001B05DF804EB01B062B6704704000020C5
:1002A0000948804709480047FEE7FEE7FEE7FEE70A
:1002B000FEE7FEE7FEE7FEE7FEE7FEE70448054946
:1002C000054A064B704700005D030008C5010008A1
:1002D00048050020480B0020480700204807002060
:1002E000704770477047754600F02CF8AE46050021
:1002F0006946534620F00700854618B020B5FFF741
:10030000DDFFBDE820404FF000064FF000074FF042
:1003100000084FF0000B21F00701AC46ACE8C00923
:10032000ACE8C009ACE8C009ACE8C0098D4670472C
:1003300010B50446AFF300802046BDE81040FFF73B
:1003400088BF000000487047E804002001491820D9
:10035000ABBEFEE7260002007047000010480068B0
:1003600040F001000E49086000200D490831086086
:100370000B4800680B490840094908600A48091DF4
:100380000860081F006820F48020091F0860002012
:1003900003490C3108604FF0006004490860704761
:1003A00000380240FFFFF6FE1030002408ED00E0A8
:1003B00004E003480068401C01490860F9E70000B8
:1003C000080000200FE008480068401C064908604B
:1003D000064800F0BFF806480068401C0449086061
:1003E000024800F0B1F8EEE70C00002018000020F1
:1003F0001C0000200FE008480068401C0649086007
:10040000064800F0A7F806480068401E0449086046
:10041000024800F099F8EEE71000002018000020D4
:100420001C00002010B50121094800F08BF80121C3
:10043000084800F087F800F041F8074A07490848E3
:1004400000F010F8642000F041F8002010BD00001A
:100450001400002018000020F5030008C503000860
:10046000B103000870B504460D46164672B6104832
:10047000A0F1080148600830C860103841610020D0
:1004800000F044F80B48C0F88841012000F03EF825
:100490000848C0F81853022000F038F80548C0F8A2
:1004A000A864034808380449086062B6012070BD9A
:1004B00028000020380000200400002072B64FF40D
:1004C0007A500149086070470000002010B50446CA
:1004D00000204FF0E021086188610A48006820F0A0
:1004E0007F4040F06040074908600749096804FB05
:1004F00001F0401E4FF0E021486107200861FFF73E
:10050000BEFE10BD20ED00E00000002000EBC001A9
:1005100001EB0011094A02EB011101F5A871084A2B
:1005200042F830104FF0807100EBC00202EB001275
:10053000024B03EB0212C2F88C1170473800002006
:10054000200000200160704772B60168491C0160FC
:1005500062B6704772B601E072B662B601680029F1
:10056000FADD0168491E016062B670478C0500081B
:10057000000000202000000000020008AC05000878
:1005800020000020280B00001C02000800000000D2
:10059000000000000000000000000000000000005B
:0C05A0000000000000000000000000004F
:04000005080002A14C
:00000001FF
